:020000040800F2
:1000000000000320C58E0008758900088389000858
:10001000898900088F890008958900080000000080
:100020000000000000000000000000009B890008A4
:10003000A989000800000000B7890008158F000892
:10004000158F0008158F0008158F0008158F000800
:10005000158F0008158F0008158F0008158F0008F0
:10006000158F0008158F0008158F0008158F0008E0
:10007000158F0008158F0008158F0008158F0008D0
:10008000158F0008158F0008158F0008158F0008C0
:10009000158F0008158F0008158F0008158F0008B0
:1000A000158F0008C5890008E1890008158F000830
:1000B000158F0008158F0008158F0008158F000890
:1000C000158F0008158F0008158F0008158F000880
:1000D000158F0008158F0008158F0008158F000870
:1000E000158F0008158F0008158F0008158F000860
:1000F000158F0008158F0008158F0008158F000850
:10010000158F0008158F0008158F0008158F00083F
:10011000158F0008158F0008FD890008158F00084D
:10012000158F0008158F0008158F0008158F00081F
:10013000158F0008158F0008158F0008158F00080F
:10014000158F0008158F0008158F0008158F0008FF
:10015000158F0008158F0008158F0008158F0008EF
:10016000158F0008158F0008158F0008158F0008DF
:10017000158F0008158F0008158F0008000000007B
:10018000158F0008158F0008158F0008158F0008BF
:10019000158F0008158F0008158F0008158F0008AF
:0C01A000118A0008158F0008258A00084D
:1001B00010B5054C237833B9044B13B10448AFF3A1
:1001C00000800123237010BDB0000020000000005B
:1001D0006C9D000808B5034B1BB103490348AFF3FE
:1001E000008008BD00000000B40000206C9D0008E5
:1001F00001F0FF01102A2BDB10F0070F08D010F8D8
:10020000013B013A8B422DD010F0070F42B3F6D1DB
:10021000F0B441EA012141EA014122F007047FF0F4
:1002200000070023F0E80256083C85EA010586EA4B
:10023000010685FA47F5A3FA87F586FA47F6A5FA87
:1002400087F68EB9EED1F0BC01F0FF0102F0070293
:1002500032B110F8013B013A83EA010313B1F8D13E
:100260000020704701387047002D06BF354603381F
:10027000073815F0010F07D1013015F4807F02BF58
:10028000013015F4C03F0130F0BC0138704700BFA9
:1002900081F0004102E000BF83F0004330B54FEA37
:1002A00041044FEA430594EA050F08BF90EA020FA4
:1002B0001FBF54EA000C55EA020C7FEA645C7FEA37
:1002C000655C00F0E2804FEA5454D4EB5555B8BF5A
:1002D0006D420CDD2C4480EA020281EA030382EACB
:1002E000000083EA010180EA020281EA0303362D5D
:1002F00088BF30BD11F0004F4FEA01314FF4801C30
:100300004CEA113102D0404261EB410113F0004F41
:100310004FEA03334CEA133302D0524263EB4303F8
:1003200094EA050F00F0A780A4F10104D5F1200E96
:100330000DDB02FA0EFC22FA05F2801841F10001F1
:1003400003FA0EF2801843FA05F359410EE0A5F1C5
:1003500020050EF1200E012A03FA0EFC28BF4CF0F6
:10036000020C43FA05F3C01851EBE37101F00045AC
:1003700007D54FF0000EDCF1000C7EEB00006EEBB9
:100380000101B1F5801F1BD3B1F5001F0CD3490843
:100390005FEA30004FEA3C0C04F101044FEA44529A
:1003A00012F5800F80F09A80BCF1004F08BF5FEA21
:1003B000500C50F1000041EB045141EA050130BD01
:1003C0005FEA4C0C404141EB010111F4801FA4F1A4
:1003D0000104E9D191F0000F04BF01460020B1FAF9
:1003E00081F308BF2033A3F10B03B3F120020CDA31
:1003F0000C3208DD02F1140CC2F10C0201FA0CF00F
:1004000021FA02F10CE002F11402D8BFC2F1200C73
:1004100001FA02F120FA0CFCDCBF41EA0C01904029
:10042000E41AA2BF01EB0451294330BD6FEA040472
:100430001F3C1CDA0C340EDC04F11404C4F120025D
:1004400020FA04F001FA02F340EA030021FA04F36F
:1004500045EA030130BDC4F10C04C4F1200220FAC6
:1004600002F001FA04F340EA0300294630BD21FA04
:1004700004F0294630BD94F0000F83F4801306BFCA
:1004800081F480110134013D4EE77FEA645C18BFBE
:100490007FEA655C29D094EA050F08BF90EA020F55
:1004A00005D054EA000C04BF1946104630BD91EA4D
:1004B000030F1EBF0021002030BD5FEA545C05D150
:1004C0004000494128BF41F0004130BD14F580048F
:1004D0003CBF01F5801130BD01F0004545F0FE4103
:1004E00041F470014FF0000030BD7FEA645C1ABF38
:1004F000194610467FEA655C1CBF0B46024650EA6F
:10050000013406BF52EA033591EA030F41F400219A
:1005100030BD00BF90F0000F04BF0021704730B520
:100520004FF4806404F132044FF000054FF00001F5
:1005300050E700BF90F0000F04BF0021704730B5B6
:100540004FF4806404F1320410F0004548BF40428B
:100550004FF000013EE700BF42004FEAE2014FEAE0
:1005600031014FEA02701FBF12F07F4393F07F4FBB
:1005700081F06051704792F0000F14BF93F07F4FED
:10058000704730B54FF4607401F0004521F0004130
:1005900020E700BF50EA010208BF704730B54FF0B6
:1005A00000050AE050EA010208BF704730B511F0BB
:1005B000004502D5404261EB41014FF4806404F1F3
:1005C00032045FEA915C3FF4DCAE4FF003025FEA75
:1005D000DC0C18BF03325FEADC0C18BF033202EBFD
:1005E000DC02C2F1200300FA03FC20FA02F001FA57
:1005F00003FE40EA0E0021FA02F11444C1E600BFF6
:1006000070B54FF0FF0C4CF4E06C1CEA11541DBFA8
:100610001CEA135594EA0C0F95EA0C0F00F0DEF873
:100620002C4481EA030621EA4C5123EA4C5350EA58
:10063000013518BF52EA033541F4801143F48013A9
:1006400038D0A0FB02CE4FF00005E1FB02E506F03A
:100650000042E0FB03E54FF00006E1FB03569CF08F
:10066000000F18BF4EF0010EA4F1FF04B6F5007F95
:1006700064F5407404D25FEA4E0E6D4146EB060607
:1006800042EAC62141EA55514FEAC52040EA5E5090
:100690004FEACE2EB4F1FD0C88BFBCF5E06F1ED83A
:1006A000BEF1004F08BF5FEA500E50F1000041EB71
:1006B000045170BD06F0004646EA010140EA02001E
:1006C00081EA0301B4EB5C04C2BFD4EB0C0541EA40
:1006D000045170BD41F480114FF0000E013C00F355
:1006E000AB8014F1360FDEBF002001F0004170BD79
:1006F000C4F10004203C35DA0C341BDC04F1140492
:10070000C4F1200500FA05F320FA04F001FA05F21D
:1007100040EA020001F0004221F0004110EBD370EA
:1007200021FA04F642EB06015EEA430E08BF20EA16
:10073000D37070BDC4F10C04C4F1200500FA04F3B9
:1007400020FA05F001FA04F240EA020001F000414B
:1007500010EBD37041F100015EEA430E08BF20EABE
:10076000D37070BDC4F1200500FA05F24EEA020E06
:1007700020FA04F301FA05F243EA020321FA04F035
:1007800001F0004121FA04F220EA020000EBD370EC
:100790005EEA430E08BF20EAD37070BD94F0000FEC
:1007A0000FD101F00046400041EB010111F4801F20
:1007B00008BF013CF7D041EA060195F0000F18BFD1
:1007C000704703F00046520043EB030313F4801F0D
:1007D00008BF013DF7D043EA0603704794EA0C0FC7
:1007E0000CEA135518BF95EA0C0F0CD050EA4106DD
:1007F00018BF52EA4306D1D181EA030101F000415A
:100800004FF0000070BD50EA410606BF1046194681
:1008100052EA430619D094EA0C0F02D150EA01368D
:1008200013D195EA0C0F05D152EA03361CBF1046CE
:1008300019460AD181EA030101F0004141F0FE416D
:1008400041F470014FF0000070BD41F0FE4141F4F1
:10085000780170BD70B54FF0FF0C4CF4E06C1CEAF1
:1008600011541DBF1CEA135594EA0C0F95EA0C0FA6
:1008700000F0A7F8A4EB050481EA030E52EA033561
:100880004FEA013100F088804FEA03334FF0805582
:1008900045EA131343EA12634FEA022245EA1115AF
:1008A00045EA10654FEA00260EF000419D4208BF60
:1008B000964244F1FD0404F5407402D25B084FEA0D
:1008C0003202B61A65EB03055B084FEA32024FF4B9
:1008D00080104FF4002CB6EB020E75EB030E22BF16
:1008E000B61A754640EA0C005B084FEA3202B6EBD6
:1008F000020E75EB030E22BFB61A754640EA5C0085
:100900005B084FEA3202B6EB020E75EB030E22BF14
:10091000B61A754640EA9C005B084FEA3202B6EB15
:10092000020E75EB030E22BFB61A754640EADC00D4
:1009300055EA060E18D04FEA051545EA16754FEA36
:1009400006164FEAC30343EA52734FEAC2025FEA54
:100950001C1CC0D111F4801F0BD141EA00014FF0E3
:1009600000004FF0004CB6E711F4801F04BF0143B4
:100970000020B4F1FD0C88BFBCF5E06F3FF6AFAED0
:10098000B5EB030C04BFB6EB020C5FEA500C50F160
:10099000000041EB045170BD0EF0004E4EEA1131E3
:1009A00014EB5C04C2BFD4EB0C0541EA045170BDEA
:1009B00041F480114FF0000E013C90E645EA060E2E
:1009C0008DE60CEA135594EA0C0F08BF95EA0C0F5C
:1009D0003FF43BAF94EA0C0F0AD150EA01347FF4A4
:1009E00034AF95EA0C0F7FF425AF104619462CE77B
:1009F00095EA0C0F06D152EA03353FF4FDAE1046DE
:100A0000194622E750EA410618BF52EA43067FF42E
:100A1000C5AE50EA41047FF40DAF52EA43057FF4BE
:100A2000EBAE12E74FEA410212F5001215D211D5D2
:100A30006FF47873B3EB625212D94FEAC12343F0DB
:100A4000004343EA505311F0004F23FA02F018BF5D
:100A5000404270474FF00000704750EA013005D126
:100A600011F0004008BF6FF0004070474FF00000E9
:100A7000704700BF53B94AB9002908BF00281CBFFE
:100A80004FF0FF314FF0FF3000F07AB9ADF1080CB4
:100A90006DE904CE00F006F8DDF804E0DDE902239C
:100AA00004B070472DE9F0478C460D460446089E79
:100AB000002B51D18A4217466DD9B2FA82FEBEF19F
:100AC000000F0BD0CEF1200C01FA0EF520FA0CFC31
:100AD00002FA0EF74CEA050C00FA0EF44FEA174A38
:100AE000250CBCFBFAF81FFA87F90AFB18CC45EA7B
:100AF0000C4508FB09F3AB420AD9ED1908F1FF32A6
:100B000080F02381AB4240F22081A8F102083D44ED
:100B1000ED1AA4B2B5FBFAF00AFB105544EA0544FD
:100B200000FB09F9A14509D9E41900F1FF3380F070
:100B30000A81A14540F2078102383C44A4EB090434
:100B400040EA08400021002E61D024FA0EF4002370
:100B500034607360BDE8F0878B4207D9002E54D013
:100B6000002186E821000846BDE8F087B3FA83F14A
:100B7000002940F08E80AB4202D3824200F2FA801C
:100B8000841A65EB03050120AC46002E3FD086E8B1
:100B90001010BDE8F08712B90127B7FBF2F7B7FADA
:100BA00087FEBEF1000F34D1EB1B3A0C1FFA87FC15
:100BB0000121B3FBF2F8250C02FB183345EA03458B
:100BC0000CFB08F3AB4207D9ED1908F1FF3002D254
:100BD000AB4200F2D1808046ED1AA3B2B5FBF2F031
:100BE00002FB105543EA05440CFB00FCA44507D961
:100BF000E41900F1FF3302D2A44500F2B880184690
:100C0000A4EB0C0440EA08409DE731463046BDE8BD
:100C1000F087CEF1200405FA0EF307FA0EF720FA5A
:100C200004F83A0C25FA04F448EA0308B4FBF2F19C
:100C30004FEA184502FB11441FFA87FC45EA0445B8
:100C400001FB0CF3AB4200FA0EF409D9ED1901F1E6
:100C5000FF3080F08A80AB4240F2878002393D4409
:100C6000EB1A1FFA88F5B3FBF2F002FB103345EAEA
:100C7000034500FB0CF3AB4207D9ED1900F1FF3837
:100C80006FD2AB426DD902383D44EB1A40EA0141C4
:100C90008FE7C1F1200722FA07F88B4005FA01F42B
:100CA00048EA030320FA07FE4FEA134CFD404EEAE0
:100CB000040EB5FBFCF94FEA1E440CFB19551FFA54
:100CC00083F844EA054509FB08F4AC4202FA01F254
:100CD00000FA01FA08D9ED1809F1FF3043D2AC420D
:100CE00041D9A9F102091D442D1B1FFA8EFEB5FB47
:100CF000FCF00CFB10554EEA054400FB08F8A0453B
:100D000007D9E41800F1FF3529D2A04527D90238C8
:100D10001C4440EA0940A4EB0804A0FB02894C45AE
:100D2000C6464D4615D312D056B1BAEB0E0364EB4E
:100D3000050404FA07F7CB401F43CC4037607460CA
:100D40000021BDE8F0871846F8E69046E0E6C24587
:100D5000EAD2B8EB020E69EB03050138E4E7284656
:100D6000D7E7404691E78146BEE7014678E702387B
:100D70003C4445E7084608E7A8F102083D442BE754
:100D8000704700BF80B500AF00F05CFACA2000F0E9
:100D90005DF9C32000F067F9082000F064F95020E5
:100DA00000F061F9CF2000F051F9002000F05BF96C
:100DB000C12000F058F9302000F055F9ED2000F086
:100DC00045F9642000F04FF9032000F04CF912209F
:100DD00000F049F9812000F046F9E82000F036F9EA
:100DE000852000F040F9002000F03DF9782000F067
:100DF0003AF9CB2000F02AF9392000F034F92C2000
:100E000000F031F9002000F02EF9342000F02BF929
:100E1000022000F028F9F72000F018F9202000F057
:100E200022F9EA2000F012F9002000F01CF900205D
:100E300000F019F9B12000F009F9002000F013F9D1
:100E40001B2000F010F9B62000F000F90A2000F095
:100E50000AF9A22000F007F9C02000F0F7F81020EE
:100E600000F001F9C12000F0F1F8102000F0FBF8CB
:100E7000C52000F0EBF8452000F0F5F8152000F053
:100E8000F2F8C72000F0E2F8902000F0ECF83620ED
:100E900000F0DCF8C82000F0E6F8F22000F0D6F808
:100EA000002000F0E0F8B02000F0D0F8C22000F000
:100EB000DAF8B62000F0CAF80A2000F0D4F8A7202B
:100EC00000F0D1F8272000F0CEF8042000F0CBF895
:100ED0002A2000F0BBF8002000F0C5F8002000F048
:100EE000C2F8002000F0BFF8EF2000F0BCF82B2083
:100EF00000F0ACF8002000F0B6F8002000F0B3F8E5
:100F0000012000F0B0F83F2000F0ADF8F62000F02E
:100F10009DF8012000F0A7F8002000F0A4F80620BA
:100F200000F0A1F82C2000F091F8C82000F078FA29
:100F3000262000F08BF8012000F095F8E02000F06A
:100F400085F80F2000F08FF8292000F08CF824207D
:100F500000F089F80C2000F086F80E2000F083F8ED
:100F6000092000F080F84E2000F07DF8782000F095
:100F70007AF83C2000F077F8092000F074F813208C
:100F800000F071F8052000F06EF8172000F06BF803
:100F9000112000F068F8002000F065F8E12000F072
:100FA00055F8002000F05FF8162000F05CF81B20D8
:100FB00000F059F8042000F056F8112000F053F822
:100FC000072000F050F8312000F04DF8332000F0F9
:100FD0004AF8422000F047F8052000F044F80C20C1
:100FE00000F041F80A2000F03EF8282000F03BF81D
:100FF0002F2000F038F80F2000F035F8112000F015
:1010000025F8C82000F00CFA292000F01FF82C2049
:1010100000F01CF800BF80BD80B500AF00F012F9F1
:101020000321D32000F02CF803469BB2184680BD64
:1010300080B500AF292000F009F800BF80BD80B561
:1010400000AF282000F002F800BF80BD80B582B05C
:1010500000AF0346FB71FB79184600F08DF900BF25
:101060000837BD4680BD80B582B000AF0346FB8027
:10107000FB88184600F05EF900BF0837BD4680BD0A
:1010800080B582B000AF03460A46FB8013467B71F1
:101090007A79FB881146184600F090F90346184605
:1010A0000837BD4680BD80B400AFF0231846BD466A
:1010B0005DF8047B704780B400AF4FF4A07318460E
:1010C000BD465DF8047B704780B500AF194804F059
:1010D0005DFD0346002B2BD1164B174A1A60154BAA
:1010E0001822DA61134B00229A60124B00225A61D7
:1010F000104B00221A610F4B00229A620D4B0722FF
:10110000DA620C4B0022DA600A4B00221A62094BA9
:101110004FF400729A61074B00225A62054B4FF45C
:1011200082725A60034800F053F8024804F0CBF88A
:1011300000BF80BDCC0000200050014080B584B0CD
:1011400000AF0346FB710023FB73FB799AB2094B96
:101150001B6807F10801084804F072FA0346FB73A4
:10116000FB7B002B01D000F027F8BB681846103736
:10117000BD4680BD40000020CC00002080B584B07A
:1011800000AF0346FB800023FB73094B1B68B91DAE
:101190000122084804F022F90346FB73FB7B002B75
:1011A00001D000F009F800BF1037BD4680BD00BF78
:1011B00040000020CC00002080B500AF034804F0C0
:1011C000E5F8FFF781FF00BF80BD00BFCC00002025
:1011D00080B58AB000AF786000233B61174A174B97
:1011E0005B6C43F480135364144B5B6C03F4801307
:1011F0003B613B690023FB60104A104B1B6B43F0C3
:10120000200313630D4B1B6B03F02003FB60FB6893
:101210004FF460737B610223BB610223FB610123F6
:101220003B6205237B6207F114031946044802F070
:1012300065F900BF2837BD4680BD00BF00380240B9
:101240000014024080B588B000AF364B1B78002BED
:1012500064D1344B01221A700023BB60324A324BF6
:101260001B6B43F0080313632F4B1B6B03F0080346
:10127000BB60BB684FF40053FB6001233B6100235C
:101280007B610223BB6107F10C031946274802F07A
:1012900035F900237B60244A234B1B6B43F0080382
:1012A0001363214B1B6B03F008037B607B684FF4D7
:1012B0008053FB6001233B6100237B610223BB6100
:1012C00007F10C031946194802F018F900233B6096
:1012D000154A154B1B6B43F004031363124B1B6B36
:1012E00003F004033B603B680423FB6001233B6184
:1012F00000237B610223BB6107F10C0319460C48F4
:1013000002F0FCF800220421094802F0ADFB0122A2
:101310000421074802F0A8FBFFF7D6FE00BF2037E4
:10132000BD4680BD2401002000380240000C024070
:101330000008024080B582B000AF0346FB80012266
:101340004FF400510A4802F08FFB002204210948A3
:1013500002F08AFBFB881846FFF710FF01220421E8
:10136000044802F081FB00BF0837BD4680BD00BFC6
:10137000000C02400008024080B582B000AF034676
:10138000FB7100224FF400510A4802F06DFB00226D
:101390000421094802F068FBFB799BB21846FFF76D
:1013A000EDFE01220421044802F05EFB00BF083775
:1013B000BD4680BD000C02400008024080B584B0EC
:1013C00000AF03460A46FB8013467B710023FB6097
:1013D00000220421104802F047FB00224FF4005184
:1013E0000E4802F041FBFB881846FFF7C7FE7B79E9
:1013F0001846FFF7A3FEF86001224FF4005107489A
:1014000002F032FB01220421034802F02DFBFB68AD
:1014100018461037BD4680BD00080240000C02404F
:1014200080B582B000AF7860786801F0EFF900BF56
:101430000837BD4680BD000080B500AF2D4B2E4A59
:101440001A602C4B09225A612A4B01229A61294BBE
:101450001D22DA61274B03221A62264B40F20D123D
:101460005A62244B40F243129A62224B40F2171206
:10147000DA62204B40F247121A631E4B002283F8B7
:1014800036201C4B002283F834201A4B002283F8AC
:1014900035201A4B08221A60184BC0221A61174BCC
:1014A00004229A61154B4FF400325A62134803F03C
:1014B000E7FC104B00225A600E4B00229A600D4B45
:1014C0000022DA600B4B00221A6100F061FD09482E
:1014D00002F088FC0A4B0B4A1A60094B1B681B6818
:1014E000984700F087FF084800F0B4F8002318463A
:1014F00080BD00BF84020020006801406801002018
:101500002C030020000000203800002080B500AF30
:10151000034B1B689B6A98470346184680BD00BF73
:101520002C03002080B500AF034B1B68DB6A984793
:101530000346184680BD00BF2C03002080B590B044
:1015400000AF03463960FB800023FB60FFF7DEFF3E
:1015500003463B6100237B61FFF7E4FF0346BB6169
:101560000023FB613B683B63FF233B6200237B62FC
:10157000002387F83C30002387F83D30002387F8AC
:101580003E304FF4C063BB620723FB62FFF7BEFF30
:1015900003467B63FFF7C6FF0346BB63FA8807F188
:1015A0000C031946144802F0AFFDFA88134913469C
:1015B0005B0013449B000B4404334FF0FF321A606E
:1015C000FA880E4913465B0013449B000B44083312
:1015D0000B4A1A60FA88094913465B0013449B00C2
:1015E0000B444FF07F421A60034802F0CBFD00BF6E
:1015F0004037BD4680BD00BF840200209C01002012
:101600003800002080B483B000AF7860044A7B6863
:10161000136000BF0C37BD465DF8047B704700BF08
:101620009801002080B483B000AF7860074B1A683F
:10163000074913465B0013449B000B447A681A6009
:1016400000BF0C37BD465DF8047B70479801002051
:101650009C01002080B483B000AF7860084B1A680A
:10166000084913465B0013449B000B4408337A6817
:101670001A6000BF0C37BD465DF8047B704700BFA1
:10168000980100209C01002080B400AF074B1A682D
:10169000074913465B0013449B000B4408331B6847
:1016A0001846BD465DF8047B704700BF98010020D6
:1016B0009C010020F0B585B002AF78600F4B1C682C
:1016C0000E4B1B680E4A342101FB03F313445C33B9
:1016D0001B681D46FFF71AFF0646FFF723FF024669
:1016E0007B68019300230093134632462946204627
:1016F00000F004FE00BF0C37BD46F0BD980100208D
:101700008402002090B585B000AF78602D4B1A6838
:101710002D4913465B0013449B000B441B68FB6080
:10172000284B1A68274B196827480B465B000B4467
:101730009B00034404331968234813465B00134499
:101740009B00034419601F4B1A681F4913465B0036
:1017500013449B000B4408331B68DA887B689BB2F8
:1017600012FB03F39CB2FFF7D1FE034698B2154B70
:101770001A68154913465B0013449B000B44083359
:101780001B68DB8802462146002000F0F7FA0D4B6B
:101790001A680D4913465B0013449B000B44FA681A
:1017A0001A60084B1A68084913465B0013449B00F3
:1017B0000B441B681846FFF735FF00BF1437BD46C2
:1017C00090BD00BF980100209C01002090B583B01F
:1017D00000AF0346FB800B46BB801346FB701B4BE0
:1017E0001A681B4913465B0013449B000B440833E3
:1017F0001B681968FB78A3F12000144B1A68144C7D
:1018000013465B0013449B00234408331B68DB88AA
:1018100003FB00F00D4B1A680D4C13465B0013449C
:101820009B00234408331B689B880733002B00DA96
:101830000733DB1003FB00F3CA18B988FB8818468E
:1018400000F0A2FC00BF0C37BD4690BD98010020FF
:101850009C010020B0B588B000AFBA601A460346BC
:10186000FB810B46BB811346FB710123FB830023E5
:10187000BB830023BB6100233B61BB687B6102E04B
:10188000BB690133BB617B695A1C7A611B78002BF1
:10189000F6D1FFF73BFE4A4B1A684A4913465B00F4
:1018A00013449B000B4408331B689B88B0FBF3F385
:1018B0003B61FB79022B1CD0032B17D0012B2ED1BF
:1018C0003A69BB69D11A3E4B1A683E4813465B0021
:1018D00013449B00034408331B689B8803FB01F3FC
:1018E0005B089AB2FB891344FB831BE0FB89FB83F3
:1018F00018E03A69BB69D31A99B2314B1A6831487A
:1019000013465B0013449B00034408331B689B8809
:1019100011FB03F39AB2FB891344FB8302E0FB89BA
:10192000FB8300BF1AE0BB681A78B989FB8B1846A5
:10193000FFF74CFF224B1A68224913465B00134401
:101940009B000B4408331B689A88FB8B1344FB8372
:10195000BB680133BB60BB8B0133BB83BB681B78A7
:10196000002B14BF01230023DCB2FFF7CFFD054697
:10197000B98B134B1A68134813465B0013449B0042
:10198000034408331B689B8803FB01F3EB1A99B2ED
:101990000B4B1A680B4813465B0013449B0003442F
:1019A00008331B689B8899422CBF01230023DBB2BC
:1019B0002340DBB2002BB6D100BF2037BD46B0BDFF
:1019C000980100209C01002080B582B000AF034642
:1019D0003960FB80FFF758FE0346DB88FA8812FB6C
:1019E00003F399B203233A680020FFF733FF00BFE7
:1019F0000837BD4680BD0000B0B586B002AF0346D3
:101A0000FB800B46BB8013467B800023FB60164B9C
:101A10001B68164A342101FB03F313445C331C6832
:101A2000FFF774FD0246BB8803FB02F2FB881344F8
:101A30009B002344FB600C4B1868FC687D880A4BB4
:101A40001A680B4913465B0013449B000B441B6848
:101A500001930023009301232A46214600F04EFC07
:101A600000BF1037BD46B0BD9801002084020020A1
:101A70009C01002090B587B000AF0346FB800B4669
:101A8000BB8013467B807B885B00C3F103037B61D3
:101A900000233B617B88FB60CFE03B699AB2FB8807
:101AA000134498B2FB689BB2BA88D31A9CB2674BB6
:101AB0001A68674913465B0013449B000B441B687C
:101AC0001A46214600F03AFB3B699BB2FA88D31ACA
:101AD00098B2FB689BB2BA88D31A9CB25B4B1A6867
:101AE0005B4913465B0013449B000B441B681A467A
:101AF000214600F023FBFB689AB2FB88134498B29E
:101B00003B699BB2BA88D31A9CB2504B1A685049B1
:101B100013465B0013449B000B441B681A46214686
:101B200000F00CFBFB689BB2FA88D31A98B23B69B1
:101B30009BB2BA88D31A9CB2444B1A6844491346E4
:101B40005B0013449B000B441B681A46214600F0BF
:101B5000F5FA3B699AB2FB88134498B2FB689AB2D3
:101B6000BB8813449CB2394B1A68394913465B0051
:101B700013449B000B441B681A46214600F0DEFA12
:101B80003B699BB2FA88D31A98B2FB689AB2BB88B9
:101B900013449CB22D4B1A682D4913465B00134425
:101BA0009B000B441B681A46214600F0C7FAFB68ED
:101BB0009AB2FB88134498B23B699AB2BB8813442B
:101BC0009CB2224B1A68224913465B0013449B00C7
:101BD0000B441B681A46214600F0B0FAFB689BB222
:101BE000FA88D31A98B23B699AB2BB8813449CB264
:101BF000164B1A68164913465B0013449B000B44AE
:101C00001B681A46214600F099FA7B69002B06DA18
:101C10003B699A007B69134406337B610AE03A69A9
:101C2000FB68D31A9A007B6913440A337B61FB6813
:101C3000013BFB603B6901333B613A69FB689A42B7
:101C40007FF62BAF00BF1C37BD4690BD980100202A
:101C50009C01002090B58BB000AFF860B9607A604D
:101C600000237B620023BB6100237B6100233B6177
:101C70000023FB617B680A331B889BB27B627B6815
:101C80000C331B889BB21B041A467B6A13437B628E
:101C90007B6812331B88BB617B6814331B881B0471
:101CA0001A46BB691343BB617B6816331B887B6193
:101CB0007B6818331B881B041A467B6913437B61BE
:101CC0007B681C331B883B612A4B1B682A4A3421E2
:101CD00001FB03F313445C331C68FFF717FC024657
:101CE000BB6803FB02F2FB6813449B0023443B6286
:101CF0003B69203B072B02D80023FB6108E03B69CE
:101D0000103B072B02D80223FB6101E00123FB619A
:101D10007B69013BBA6902FB03F33A69D20802FB13
:101D200003F27B6A13447A6813447B6000237B626E
:101D300018E0396AFB69BA69786800F017FBFFF7A9
:101D4000E5FB03469B003A6A13443B623B69DB08B0
:101D5000BA6902FB03F35B427A6813447B607B6AD7
:101D600001337B627A6A7B699A42E2D300BF2C37E7
:101D7000BD4690BD98010020840200202DE9F0416D
:101D800086B002AF0446084611461A462346FB8039
:101D90000346BB800B467B8013463B800023FB60E1
:101DA000204B1A68204913465B0013449B000B44E8
:101DB0001B681846FFF736FC1A4B1B681B4A342178
:101DC00001FB03F313445C331C68FFF79FFB0246DF
:101DD000BB8803FB02F2FB8813449B002344FB6097
:101DE000104B1C68FD687E88B7F80080FFF78EFBFB
:101DF00002467B88D11A0B4B1A680B4813465B00CE
:101E000013449B0003441B680193009143463246F0
:101E10002946204600F072FA00BF1037BD46BDE8E3
:101E2000F08100BF980100209C0100208402002066
:101E300080B586B000AF0346FB800B46BB801346DF
:101E40007B807B885B00C3F103037B6100233B61E4
:101E50007B88FB60444B1A68444913465B0013447B
:101E60009B000B441B681846FFF7DCFB61E0FB6836
:101E7000002B21D0FB689BB2FA88D31A98B23B6939
:101E80009AB2BB88134499B2FB689BB25B009BB2C9
:101E90001A46FFF7B1FDFB689BB2FA88D31A98B2D5
:101EA0003B699BB2BA88D31A99B2FB689BB25B00BC
:101EB0009BB21A46FFF7A0FD3B69002B21D03B697E
:101EC0009BB2FA88D31A98B2FB689BB2BA88D31A2D
:101ED00099B23B699BB25B009BB21A46FFF78CFD3F
:101EE0003B699BB2FA88D31A98B2FB689AB2BB8856
:101EF000134499B23B699BB25B009BB21A46FFF751
:101F00007BFD7B69002B06DA3B699A007B691344F1
:101F100006337B610AE03A69FB68D31A9A007B6951
:101F200013440A337B61FB68013BFB603B6901336F
:101F30003B613A69FB689A4299D90B4B1A680B4985
:101F400013465B0013449B000B441B681846FFF7C5
:101F500069FB7A88B988FB881846FFF78BFD00BFBC
:101F60001837BD4680BD00BF980100209C010020AD
:101F700080B500AF054B1B689B68002B03D0034B5B
:101F80001B689B68984700BF80BD00BF2C030020E2
:101F900080B58EB000AF00233B62614A604B5B6C42
:101FA00043F0806353645E4B5B6C03F080633B6281
:101FB0003B6A0023FB615A4A594B1B6B43F40003F5
:101FC0001363574B1B6B03F40003FB61FB69002396
:101FD000BB61534A524B1B6B43F001031363504BDD
:101FE0001B6B03F00103BB61BB6900237B614C4A9F
:101FF0004B4B1B6B43F002031363494B1B6B03F00A
:1020000002037B617B6900233B61454A444B1B6BA8
:1020100043F004031363424B1B6B03F004033B6167
:102020003B690023FB603E4A3D4B1B6B43F00803BA
:1020300013633B4B1B6B03F00803FB60FB6800233F
:10204000BB60374A364B1B6B43F020031363344BA2
:102050001B6B03F02003BB60BB6800237B60304A2E
:102060002F4B1B6B43F0400313632D4B1B6B03F093
:1020700040037B607B6841F658037B620223BB62AE
:102080000023FB6202233B630E237B6307F12403DF
:102090001946244801F032FA4FF470637B6207F16D
:1020A00024031946204801F029FA4FF498637B6213
:1020B00007F1240319461D4801F020FA48237B62EA
:1020C00007F1240319461A4801F018FA4FF4806307
:1020D0007B6207F124031946164801F00FFA4FF40A
:1020E0000C637B6207F124031946134801F006FADA
:1020F00003237B6209237B6307F1240319460A4803
:1021000001F0FCF94FF4A0537B6207F12403194658
:10211000094801F0F3F900BF3837BD4680BD00BF64
:102120000038024000000240000402400008024063
:10213000000C02400014024000180240B0B582B00A
:1021400000AF03463A60FB800B46BB800C4B1B681C
:102150000C4A342101FB03F313445C331C68BD8833
:10216000FFF7D4F9034603FB05F2FB8813449B00F9
:1021700023441A463B68136000BF0837BD46B0BD14
:10218000980100208402002080B588B000AF03468B
:102190003A60FB800B46BB800023FB610023BB61E0
:1021A00000237B61534B1A68534913465B00134469
:1021B0009B000B4408331B68DB887B824D4B1A68FD
:1021C0004D4913465B0013449B000B4408331B68C6
:1021D0009B883B823B8A0733002B00DA0733DB10F6
:1021E000DBB2DB00DAB23B8ADBB2D31AFB7300232B
:1021F000FB6176E03B8A0733002B00DA0733DB1004
:102200001A46FB6903FB02F33A681344BB603B8A3E
:102210000733002B00DA0733DB10012B02D0022B2F
:1022200004D00CE0BB681B787B6116E0BB681B78B0
:102230001B02BA680132127813437B610DE0BB6860
:102240001B781A04BB6801331B781B021343BA685E
:102250000232127813437B6100BF0023BB6136E07A
:102260003A8ABB69D21AFB7B1344013B012202FA72
:1022700003F31A467B691340002B12D0BB699AB254
:10228000FB88134498B21B4B1A681B4913465B002A
:1022900013449B000B441A68BB881946FFF74EFF96
:1022A00012E0BB699AB2FB88134498B2114B1A68CA
:1022B000114913465B0013449B000B4404331A6816
:1022C000BB881946FFF73AFFBB690133BB613A8A05
:1022D000BB699A42C4D8BB880133BB80FB69013318
:1022E000FB617A8AFB699A4284D800BF2037BD46D9
:1022F00080BD00BF980100209C01002080B586B001
:1023000002AFF860B9607A603B60164B4FF4403220
:102310005A60144B00229A60124ABB69D360114B79
:10232000114A1A600F4800F04FFD0346002B15D1EB
:10233000F9680C4800F0B6FF0346002B0ED1BA68CE
:102340003B6800937B68F969064800F086FD034608
:10235000002B03D10A21034800F0AAFD00BF10376B
:10236000BD4680BD2801002000B0024080B586B087
:1023700002AFF860B9607A603B601C4B4FF480326A
:102380005A601A4B00229A60184B0022DA60174BF1
:1023900000221A63154BFF225A63144A3B68D3622A
:1023A000124B00229A62114B114A1A600F4800F03A
:1023B0000BFD0346002B15D101210C4800F072FFE4
:1023C0000346002B0ED1F968BA68012300937B689D
:1023D000064800F042FD0346002B03D10A210348C2
:1023E00000F066FD00BF1037BD4680BD280100200B
:1023F00000B0024080B500AF294B2A4A1A602A4B30
:1024000002221A60284B07225A60274B04229A6046
:10241000254B0722DA60244B02221A61224B02224A
:102420005A61214B02229A611D4B01225A601C4BBA
:1024300000229A601A4B0422DA60194B10221A61AA
:10244000174B40225A61164B4FF4C0729A61144BDD
:102450000022DA61124B4FF400621A62104B002224
:102460005A620F4B4FF400529A6200210C4800F060
:102470007FF80D490A4802F0A7FE0346002B03D05F
:102480000A4B01221A7002E0084B00221A7040F237
:102490006A5000F00DF8054B1B78184680BD00BF50
:1024A000B4010020400100A0E80100204400002009
:1024B00080B584B000AF78600023FB602A4B012216
:1024C0001A60294B08225A60274B01229A60264B3A
:1024D0000022DA604FF6FF722349244802F0A8FE7A
:1024E000012000F093F9204B02221A601E4B0822B3
:1024F0005A601D4B01229A601B4B0022DA604FF696
:10250000FF721949194802F093FE174B03221A6013
:10251000154B08225A60144B04229A60124B002279
:10252000DA604FF6FF721049104802F081FE4FF456
:102530000C73FB600C4B04221A600B4B08225A6090
:10254000094B01229A60FB68074AD3604FF6FF727D
:102550000549064802F06CFE7968044802F093FED3
:1025600000BF1037BD4680BD04020020B40100202A
:1025700080B590B000AF786039607B68002B00F0C8
:10258000EC800023BB62774A764B9B6B43F00103E0
:102590009363744B9B6B03F00103BB62BB6A002324
:1025A0007B62704A6F4B1B6B43F4800313636D4B6C
:1025B0001B6B03F480037B627B6A00233B62694AE6
:1025C000684B1B6B43F002031363664B1B6B03F0FA
:1025D00002033B623B6A0023FB61624A614B1B6B57
:1025E00043F0040313635F4B1B6B03F00403FB61B5
:1025F000FB690023BB615B4A5A4B1B6B43F008032A
:102600001363584B1B6B03F00803BB61BB690023CA
:102610007B61544A534B1B6B43F010031363514BC4
:102620001B6B03F010037B617B6900233B614D4A08
:102630004C4B1B6B43F0200313634A4B1B6B03F0A3
:1026400020033B613B690023FB60464A454B1B6B03
:1026500043F040031363434B1B6B03F04003FB60E9
:10266000FB6802233B630223BB6300237B630C23D1
:10267000FB636023FB6207F12C0319463A4800F024
:102680003DFF0123FB6207F12C031946374800F098
:1026900035FF4CF20373FB6207F12C0319463448F3
:1026A00000F02CFF4FF68373FB6207F12C031946F1
:1026B000304800F023FF4FF63F03FB6207F12C0385
:1026C00019462D4800F01AFF48F23313FB6207F158
:1026D0002C031946294800F011FF294B00225A60AB
:1026E000274B80229A60264B4FF40072DA60244B0D
:1026F0004FF480621A61224B4FF480525A61204B92
:102700004FF480429A611E4B0022DA611C4B4FF459
:1027100000321A621A4B00225A62194B03229A6243
:10272000174B0022DA62164B00221A63144B154A2B
:102730001A607B68124A1A63114A7B6893631048D7
:1027400000F034FA0E4800F083F900220F213820FF
:1027500000F034F9382000F04DF900BF4037BD4695
:1027600080BD00BF00380240000402400008024063
:10277000000C024000100240001402400018024009
:10278000140200201064024080B500AF0E4A0E4BC8
:102790001B6843F4007313600B4A0B4B1B6843F434
:1027A00080631360084A084B1B6843F4807313600E
:1027B000032000F0F8F8002006F082F806F058F840
:1027C0000023184680BD00BF003C024080B400AF2B
:1027D000064B1B781A46064B1B681344044A1360C9
:1027E00000BFBD465DF8047B704700BF4500002078
:1027F0003003002080B400AF034B1B681846BD4671
:102800005DF8047B704700BF3003002080B584B0C2
:1028100000AF7860FFF7EEFFB8607B68FB60FB6895
:10282000B3F1FF3F05D0094B1B781A46FB681344F0
:10283000FB6000BFFFF7DEFF0246BB68D21AFB68F1
:102840009A42F7D300BF1037BD4680BD4500002037
:1028500080B485B000AF78607B6803F00703FB604D
:102860000C4BDB68BB60BA684FF6FF031340BB60DC
:10287000FB681A02BB68134343F0BF6343F40033A1
:10288000BB60044ABB68D36000BF1437BD465DF827
:10289000047B704700ED00E080B400AF044BDB68C0
:1028A0001B0A03F007031846BD465DF8047B70471A
:1028B00000ED00E080B483B000AF0346FB7197F9F0
:1028C0000730002B0BDB094997F907305B09FA79D0
:1028D00002F01F02012000FA02F241F8232000BF9B
:1028E0000C37BD465DF8047B704700BF00E100E097
:1028F00080B483B000AF03463960FB7197F90730AD
:10290000002B0ADB0D4997F907303A68D2B2120161
:10291000D2B20B4483F800230AE00949FB7903F0A3
:102920000F03043B3A68D2B21201D2B20B441A76BA
:1029300000BF0C37BD465DF8047B704700E100E046
:1029400000ED00E080B489B000AFF860B9607A6053
:10295000FB6803F00703FB61FB69C3F10703042B6A
:1029600028BF0423BB61FB690433062B02D9FB6932
:10297000033B00E000237B610122BB6902FA03F301
:102980005A1EBB681A407B699A4001217B6901FA93
:1029900003F3591E7B680B40134318462437BD468A
:1029A0005DF8047B704780B582B000AF78607868CE
:1029B000FFF74EFF00BF0837BD4680BD80B586B02B
:1029C00000AF0346B9607A60FB7300237B61FFF7B9
:1029D00063FF78617A68B9687869FFF7B3FF0246E8
:1029E00097F90F3011461846FFF782FF00BF1837DE
:1029F000BD4680BD80B582B000AF0346FB7197F93C
:102A000007301846FFF756FF00BF0837BD4680BDA8
:102A100080B582B000AF78607B68002B01D10123C4
:102A200011E07B685B79DBB2002B05D17B6800226B
:102A30001A71786804F0CEF97B6802225A717B68BB
:102A400001225A71002318460837BD4680BD000098
:102A500080B586B000AF786000237B61FFF7CAFEC7
:102A600038617B68002B01D1012399E07B6800224B
:102A700083F834207B68022283F835207B681B684A
:102A80007A681268126822F001021A600FE0FFF7FC
:102A9000B1FE02463B69D31A052B08D97B68202278
:102AA0005A657B68032283F83520032378E07B682E
:102AB0001B681B6803F00103002BE8D17B681B68CF
:102AC0001B687B617A69384B13407B617B685A686D
:102AD0007B689B681A437B68DB681A437B681B69C9
:102AE0001A437B685B691A437B689B691A437B685E
:102AF000DB691A437B681B6A13437A6913437B6162
:102B00007B685B6A042B07D17B68DA6A7B681B6B86
:102B100013437A6913437B617B681B687A691A6087
:102B20007B681B685B697B617B6923F007037B61C2
:102B30007B685B6A7A6913437B617B685B6A042B01
:102B400017D17B689B6A7A6913437B617B68DB6A78
:102B5000002B0ED0786800F0BDF80346002B08D09B
:102B60007B6840225A657B68012283F83520012367
:102B700016E07B681B687A695A61786800F074F81F
:102B80000346FB607B68DB6D3F229A40FB689A60DE
:102B90007B6800225A657B68012283F83520002378
:102BA00018461837BD4680BD3F8010F080B584B010
:102BB00000AF78607B68002B01D1012350E07B6877
:102BC00093F83530DBB2022B01D1022348E07B6859
:102BD0001B687A681268126822F001021A607B682A
:102BE0001B6800221A607B681B6800225A607B68A1
:102BF0001B6800229A607B681B680022DA607B6891
:102C00001B6800221A617B681B6821225A61786860
:102C100000F02AF80346FB607B680022DA637B68D9
:102C200000221A647B6800225A647B6800229A643E
:102C30007B680022DA647B6800221A657B68DB6DA2
:102C40003F229A40FB689A607B6800225A657B6845
:102C5000002283F835207B68002283F8342000238B
:102C600018461037BD4680BD80B485B000AF78608F
:102C70007B681B68DBB2103B144AA2FB03231B09D1
:102C8000FB60134AFB6813441B781A467B68DA65BD
:102C9000FB68032B09D97B681B6823F47F7323F03F
:102CA00003031A1D7B689A6507E07B681B6823F4A1
:102CB0007F7323F003037A6893657B689B6D1846E6
:102CC0001437BD465DF8047B704700BFABAAAAAAC3
:102CD00078B8000880B485B000AF78600023FB733B
:102CE0007B689B6ABB607B689B69002B1FD1BB68BC
:102CF000032B55D801A252F823F000BF0D2D000878
:102D00001F2D00080D2D0008A12D00087B68DB6A2F
:102D100003F08073002B45D00123FB7342E07B68F6
:102D2000DB6AB3F1C07F3FD10123FB733CE07B68DA
:102D30009B69B3F5005F21D1BB68032B36D801A294
:102D400052F823F0552D00085B2D0008552D000882
:102D50006D2D00080123FB732FE07B68DB6A03F015
:102D60008073002B24D00123FB7321E07B68DB6A96
:102D7000B3F1C07F1ED10123FB731BE0BB68022BA4
:102D800002D9032B03D018E00123FB7315E07B6805
:102D9000DB6A03F08073002B0ED00123FB730BE082
:102DA00000BF0AE000BF08E000BF06E000BF04E08B
:102DB00000BF02E000BF00E000BFFB7B18461437F5
:102DC000BD465DF8047B704780B582B000AF786087
:102DD0007B68002B01D101233BE07B6893F83930FD
:102DE000DBB2002B06D17B68002283F8382078689C
:102DF00004F044F87B68022283F839207B681B6862
:102E00007A681268126822F440317A6852680A437C
:102E10001A607B681B687A681268526B22F007019F
:102E20007A6892680A435A637B681A687B681B68F1
:102E30001B6C23F47F5323F03F037968C9680B436D
:102E400013647B680022DA637B68012283F83920EF
:102E5000002318460837BD4680BD80B586B002AF56
:102E6000F860B9607A603B60FB6893F83830012BFA
:102E700001D1022318E0FB68012283F83820FB68A7
:102E8000022283F83920BB6900933B687A68B968ED
:102E9000F86800F097FAFB681B68FA681268126815
:102EA00042F001021A60002318461037BD4680BD6B
:102EB00080B586B000AF786039600023FB607B6826
:102EC0001B681B6803F00103002B56D0FFF792FC30
:102ED00078614BE07B681B685B68FB60FB6803F014
:102EE0002103002B23D0FB6803F02003002B05D027
:102EF0007B68DB6B43F002027B68DA63FB6803F0FC
:102F00000103002B05D07B68DB6B43F001027B687B
:102F1000DA637B681B6821229A607B68042283F84D
:102F200039207B68002283F838200123A5E03B6824
:102F3000B3F1FF3F1AD0FFF75DFC02467B69D21A5E
:102F40003B689A4202D83B68002B0FD17B68DB6B51
:102F500043F020027B68DA637B68032283F8392020
:102F60007B68002283F83820032386E07B681B6897
:102F70005B6803F00203002BACD07B681B68DB6945
:102F800003F020033B617B681B685B6A03F020034E
:102F90003A6913433B613B69002B61D0FFF72AFC80
:102FA000786156E07B681B685B68FB60FB6803F038
:102FB0002903002B2ED0FB6803F00803002B05D05B
:102FC0007B68DB6B43F004027B68DA63FB6803F029
:102FD0002003002B05D07B68DB6B43F002027B688B
:102FE000DA63FB6803F00103002B05D07B68DB6B21
:102FF00043F001027B68DA637B681B6829229A60D0
:103000007B68042283F839207B68002283F838200B
:10301000012332E03B68B3F1FF3F1AD0FFF7EAFB30
:1030200002467B69D21A3B689A4202D83B68002B61
:103030000FD17B68DB6B43F020027B68DA637B682F
:10304000032283F839207B68002283F83820032389
:1030500013E07B681B685B6803F01003002BA1D0B2
:103060007B681B6812229A607B68012283F83920F2
:103070007B68002283F83820002318461837BD46A5
:1030800080BD80B584B000AF78607B681B685B68EA
:10309000FB607B681B681B68BB60FB6803F0010377
:1030A000002B26D0BB6803F48073002B21D07B68F3
:1030B0001B687A681268126822F480721A607B6852
:1030C000DB6B43F001027B68DA637B681B680122DB
:1030D0009A607B68042283F839207B68002283F899
:1030E00038207B685B69002B03D07B685B6978685C
:1030F0009847FB6803F02003002B26D0BB6803F43D
:103100000053002B21D07B681B687A681268126814
:1031100022F400521A607B681B6820229A607B6848
:10312000DB6B43F002027B68DA637B68042283F87E
:1031300039207B68002283F838207B685B69002B8C
:1031400003D07B685B6978689847FB6803F00803E5
:10315000002B26D0BB6803F40063002B21D07B68D2
:103160001B687A681268126822F400621A607B6831
:103170001B6808229A607B68DB6B43F004027B6863
:10318000DA637B68042283F839207B68002283F8A5
:1031900038207B685B69002B03D07B685B697868AB
:1031A0009847FB6803F00403002B13D0BB6803F4BB
:1031B0008063002B0ED07B681B687A6812681268E7
:1031C00022F480621A607B681B6804229A60786827
:1031D00000F053F8FB6803F00203002B24D0BB6817
:1031E00003F40073002B1FD07B681B687A68126899
:1031F000126822F400721A607B681B6802229A60CF
:103200007B68DA6B7B68DA637B68012283F839209C
:103210007B68002283F838207B681B69002B03D071
:103220007B681B6978689847FB6803F01003002BE4
:103230001FD0BB6803F48053002B1AD07B681B6837
:103240007A681268126822F480521A607B681B68E0
:1032500010229A607B68DA6B7B68DA637B680122F4
:1032600083F839207B68002283F83820786800F0E2
:103270000EF800BF1037BD4680BD80B483B000AFEC
:10328000786000BF0C37BD465DF8047B704780B4A2
:1032900083B000AF786000BF0C37BD465DF8047B9B
:1032A0007047000080B487B000AF786039607B68F9
:1032B0005B68B3F5403F7B6893F83830012B01D150
:1032C000022377E07B68012283F838207B680222A2
:1032D00083F839203B681B0118337A6813443B613B
:1032E0003B695A683B699B681B0413437B61344B01
:1032F000FB603B695B680A2B03D03B695B68092B69
:1033000007D13B69DB6803F07F437A6913437B6134
:1033100005E03B69DB681B067A6913437B613B6808
:10332000002B1FD17B681B687A681268516AFA68A3
:10333000D24311407A690A435A627B681B683A6932
:1033400012689A613B695B680A2B03D03B695B6832
:10335000092B26D17B681B683A69D26822F07F422C
:103360009A621EE07B681B687A681268D169FA6805
:10337000D24311407A690A43DA617B681B683A6973
:1033800012681A613B695B680A2B03D03B695B6872
:10339000092B06D17B681B683A69D26822F07F420C
:1033A0001A627B68012283F839207B68002283F847
:1033B0003820002318461C37BD465DF8047B704753
:1033C0000F0003FF80B48BB000AFF860B9607A6083
:1033D0003B60FB681B68FA681268526C02F040415F
:1033E0003A6810043A6B02430A435A64FB681B684C
:1033F0007A68DA63FB685B68B3F5403F74D1BB68F9
:1034000003F07F433B62BB6803F47F03FB61BB684F
:1034100003F47F43BB61BB68DBB27B61FB689B68E5
:10342000002B08D1BA69FB691A433B6A1A437B69CE
:1034300013437B6253E0FB689B68012B06D1BA699A
:10344000FB691A437B6913437B6248E0FB689B6816
:10345000022B11D1FB69DB0CFB61BB699B0ABB61D1
:103460007B69DB087B61BB695A01FB69DB021A439C
:103470007B6913437B6232E0FB689B68032B17D1A7
:103480003B6ADB0F3B62FB69DB0CFB61BB69DB0A60
:10349000BB617B69DB087B61BB695A01FB699B02ED
:1034A0001A433B6ADB031A437B6913437B6216E0D2
:1034B0003B6A1B0F3B62FB691B0DFB61BB691B0B6E
:1034C000BB617B691B097B61BB691A01FB691B023C
:1034D0001A433B6A1B031A437B6913437B62FB68F5
:1034E0001B687A6A9A6303E0FB681B68BA68DA6053
:1034F00000BF2C37BD465DF8047B704780B489B0AF
:1035000000AF7860396000237B6100233B610023BA
:10351000BB610023FB6177E10122FB6902FA03F33F
:103520007B613B681A687B6913403B613A697B6940
:103530009A4240F066813B685B68022B03D03B688F
:103540005B68122B23D1FB69DA087B68083253F8D9
:103550002230BB61FB6903F007039B000F2202FAD4
:1035600003F3DB43BA691340BB613B681A69FB692B
:1035700003F007039B0002FA03F3BA691343BB612C
:10358000FB69DA087B680832B96943F822107B6866
:103590001B68BB61FB695B00032202FA03F3DB4398
:1035A000BA691340BB613B685B6803F00302FB69C7
:1035B0005B0002FA03F3BA691343BB617B68BA6923
:1035C0001A603B685B68012B0BD03B685B68022B81
:1035D00007D03B685B68112B03D03B685B68122BFC
:1035E00030D17B689B68BB61FB695B00032202FAF8
:1035F00003F3DB43BA691340BB613B68DA68FB69DC
:103600005B0002FA03F3BA691343BB617B68BA69D2
:103610009A607B685B68BB610122FB6902FA03F375
:10362000DB43BA691340BB613B685B681B0903F06D
:103630000102FB6902FA03F3BA691343BB617B68B9
:10364000BA695A607B68DB68BB61FB695B00032277
:1036500002FA03F3DB43BA691340BB613B689A6823
:10366000FB695B0002FA03F3BA691343BB617B6831
:10367000BA69DA603B685B6803F08053002B00F0A6
:10368000C0800023FB60654A644B5B6C43F480435D
:103690005364624B5B6C03F48043FB60FB68604ADD
:1036A000FB699B08023352F82330BB61FB6903F0CE
:1036B00003039B000F2202FA03F3DB43BA691340B2
:1036C000BB617B68574A934237D07B68564A934226
:1036D00031D07B68554A93422BD07B68544A934241
:1036E00025D07B68534A93421FD07B68524A93424D
:1036F00019D07B68514A934213D07B68504A934259
:103700000DD07B684F4A934207D07B684E4A934264
:1037100001D1092312E00A2310E008230EE0072359
:103720000CE006230AE0052308E0042306E0032357
:1037300004E0022302E0012300E00023FA6902F022
:10374000030292009340BA691343BB613449FB6999
:103750009B080233BA6941F823203C4B1B68BB61CC
:103760003B69DB43BA691340BB613B685B6803F4A8
:103770008033002B03D0BA693B691343BB61334AE2
:10378000BB691360314B5B68BB613B69DB43BA6962
:103790001340BB613B685B6803F40033002B03D02C
:1037A000BA693B691343BB61284ABB695360274B25
:1037B0009B68BB613B69DB43BA691340BB613B68F3
:1037C0005B6803F48013002B03D0BA693B69134391
:1037D000BB611E4ABB6993601C4BDB68BB613B69E4
:1037E000DB43BA691340BB613B685B6803F40013B9
:1037F000002B03D0BA693B691343BB61134ABB6911
:10380000D360FB690133FB61FB690F2B7FF684AE4C
:1038100000BF2437BD465DF8047B70470038024086
:10382000003801400000024000040240000802404D
:10383000000C024000100240001402400018024038
:10384000001C02400020024000240240003C0140D5
:1038500080B487B000AF7860396000233B610023FB
:10386000FB600023BB6000237B61DAE001227B69FF
:1038700002FA03F33B613A683B691340FB60FA6864
:103880003B699A4240F0CA806B4A7B699B080233CD
:1038900052F82330BB607B6903F003039B000F22C7
:1038A00002FA03F3BA681340BB607B68634A934231
:1038B00037D07B68624A934231D07B68614A934239
:1038C0002BD07B68604A934225D07B685F4A934245
:1038D0001FD07B685E4A934219D07B685D4A934251
:1038E00013D07B685C4A93420DD07B685B4A93425D
:1038F00007D07B685A4A934201D1092312E00A2378
:1039000010E008230EE007230CE006230AE005235D
:1039100008E0042306E0032304E0022302E001237D
:1039200000E000237A6902F00302920003FA02F237
:10393000BB689A4232D17B6903F003039B000F22DC
:1039400002FA03F3BB603C487B699B083A497A69F9
:103950009208023251F82210BA68D2430A40023368
:1039600040F823203F493F4B1A68FB68DB43134074
:103970000B603C493B4B5A68FB68DB4313404B6090
:103980003849384B9A68FB68DB4313408B603549F4
:10399000344BDA68FB68DB431340CB607B681A6802
:1039A0007B695B00032101FA03F3DB431A407B6868
:1039B0001A607B69DA087B69D9087B68083153F89B
:1039C00021107B6903F007039B000F2000FA03F32B
:1039D000DB4319407B68083243F822107B689A6801
:1039E0007B695B00032101FA03F3DB431A407B6828
:1039F0009A607B685A6801217B6901FA03F3DB4313
:103A00001A407B685A607B68DA687B695B00032137
:103A100001FA03F3DB431A407B68DA607B69013308
:103A20007B617B690F2B7FF621AF00BF1C37BD4642
:103A30005DF8047B704700BF003801400000024081
:103A40000004024000080240000C02400010024046
:103A50000014024000180240001C024000200240F6
:103A600000240240003C014080B483B000AF786085
:103A70000B467B8013467B707B78002B03D07A88C3
:103A80007B689A6103E07B881A047B689A6100BFB7
:103A90000C37BD465DF8047B7047000090B585B0DB
:103AA00000AF78607B68002B01D101230FE17B68B8
:103AB00093F83D30DBB2002B06D17B68002283F8FF
:103AC0003C20786803F038FC7B68242283F83D2092
:103AD0007B681B687A681268126822F001021A601B
:103AE00001F074F9F8607B685B687B4A934207D801
:103AF000FB687A4A934294BF01230023DBB206E0BD
:103B0000FB68774A934294BF01230023DBB2002B6A
:103B100001D00123DBE0FB68724AA2FB03239B0C6C
:103B2000BB607B681B687A681268526822F03F01AC
:103B3000BA680A435A607B681A687B681B681B6A0C
:103B400023F03F017B685B686348834202D8BB680F
:103B5000013309E0BB684FF4967000FB03F3624841
:103B6000A0FB03039B0901330B4313627B681868B6
:103B70007B681B68DB6923F44F4222F0FF027B68FD
:103B80005B6855498B420DD8FB68591E7B685B68A2
:103B90005B00B1FBF3F30133C3F30B03042B38BF1A
:103BA00004234FE07B689B68002B11D1FB685C1EEF
:103BB0007B6859680B465B000B44B4FBF3F301339D
:103BC000C3F30B03002B0CBF01230023DBB212E075
:103BD000FB685C1E7B6859680B469B000B44990090
:103BE0000B44B4FBF3F30133C3F30B03002B0CBF03
:103BF00001230023DBB2002B01D0012322E07B68EC
:103C00009B68002B0ED1FB685C1E7B6859680B46D5
:103C10005B000B44B4FBF3F30133C3F30B0343F436
:103C200000430FE0FB685C1E7B6859680B469B00F5
:103C30000B4499000B44B4FBF3F30133C3F30B03C0
:103C400043F440431343C3617B681B687A6812687E
:103C5000126822F0C0017A68D0697A68126A024359
:103C60000A431A607B681A687B681B689B6823F4A8
:103C7000034323F0FF03796808697968C968014341
:103C80000B4393607B681B687A681268D26822F0E5
:103C9000FF017A6850697A68926902430A43DA60E0
:103CA0007B681B687A681268126842F001021A6029
:103CB0007B6800221A647B68202283F83D207B68A1
:103CC00000221A637B68002283F83E2000231846F6
:103CD0001437BD4690BD00BFA08601007F841E0042
:103CE000FF083D0083DE1B43D34D621080B483B0D8
:103CF00000AF786039607B6893F83D30DBB2202BF1
:103D000029D17B68242283F83D207B681B687A6870
:103D10001268126822F001021A607B681B687A68D8
:103D20001268526A22F010025A627B681B687A6835
:103D30001268516A3A680A435A627B681B687A685B
:103D40001268126842F001021A607B68202283F830
:103D50003D20002300E0022318460C37BD465DF8E5
:103D6000047B704780B485B000AF78603960002371
:103D7000FB817B6893F83D30DBB2202B2AD17B6836
:103D8000242283F83D207B681B687A6812681268D9
:103D900022F001021A607B681B685B6AFB81FB8969
:103DA00023F00F03FB813B689AB2FB891343FB812D
:103DB0007B681B68FA895A627B681B687A6812689C
:103DC000126842F001021A607B68202283F83D20CD
:103DD000002300E0022318461437BD465DF8047B3B
:103DE0007047000080B584B000AF78607B68002B1E
:103DF00001D10123BFE07B6893F8A130DBB2002B37
:103E000006D17B68002283F8A020786803F07EFB4F
:103E10007B68022283F8A1207B681B687A6812689D
:103E2000926922F070429A617B681B687A68126816
:103E300091697A6850687A68926810437A68D268A3
:103E400010437A68126902430A439A617B681A68D0
:103E50007B681B6899684A4B0B4093607B685B6981
:103E60001B04FB607B681B687A68126891687A683B
:103E70009069FA6802430A439A607B681A687B6813
:103E80001B68D9683E4B0B40D3607B68DB691B0421
:103E9000FB607B681B687A681268D1687A68106A70
:103EA000FA6802430A43DA607B681A687B681B6819
:103EB0001969334B0B4013617B685B6A1B04FB6021
:103EC0007B681B687A68126811697A68906AFA6878
:103ED00002430A431A617B681A687B681B68596948
:103EE000274B0B4053617B68DB6A1B04FB607B68DC
:103EF0001B687A68126851697A68106BFA68024325
:103F00000A435A617B6893F835301B02FB607B687B
:103F100093F836301B04BB607B681B687A681268B4
:103F2000D26A02F07F42DA627B681B687A681268A4
:103F3000D16AB868FA680243786890F8340002439E
:103F40000A43DA627B681B687A681268526B42F037
:103F500006025A637B681B687A681268926942F0AD
:103F600001029A617B680022C3F8A4207B680122C9
:103F700083F8A120002318461037BD4680BD00BF3E
:103F800000F800F080B584B000AF78607B681B68F3
:103F90009B6BFB607B681B685B6BBB60FB6803F023
:103FA0000403002B23D0BB6803F00403002B1ED0B6
:103FB0007B681B687A681268526B22F004025A63AD
:103FC0007B681B680422DA637B68D3F8A43043F073
:103FD00001027B68C3F8A4207B68042283F8A12037
:103FE0007B68002283F8A020786800F06FF8FB68F7
:103FF00003F00203002B23D0BB6803F00203002B65
:104000001ED07B681B687A681268526B22F002022D
:104010005A637B681B680222DA637B68D3F8A4309A
:1040200043F002027B68C3F8A4207B68042283F873
:10403000A1207B68002283F8A020786800F046F871
:10404000FB6803F00103002B1BD0BB6803F00103E6
:10405000002B16D07B681B687A681268526B22F0BE
:1040600001025A637B681B680122DA637B680122C4
:1040700083F8A1207B68002283F8A020786800F0F4
:104080002FF8FB6803F00803002B1BD0BB6803F07C
:104090000803002B16D07B681B687A681268526B85
:1040A00022F008025A637B681B680822DA637B6887
:1040B000012283F8A1207B68002283F8A020786881
:1040C00000F018F800BF1037BD4680BD80B483B043
:1040D00000AF786000BF0C37BD465DF8047B7047C9
:1040E00080B483B000AF786000BF0C37BD465DF888
:1040F000047B704780B483B000AF786000BF0C379A
:10410000BD465DF8047B7047B0B584B000AFF86081
:10411000B9607A60FB6893F8A030012B01D10223CB
:104120002CE0FB68012283F8A020FB68022283F8C0
:10413000A120FA687B68342101FB03F3134403F1E7
:104140003802BB6814461D460FCD0FC40FCD0FC4F7
:104150000FCD0FC42B6823607A68B968F86800F047
:104160003BF8FB681B6801225A62FB68012283F856
:10417000A120FB68002283F8A020002318461037F6
:10418000BD46B0BD80B483B000AF78607B6893F863
:10419000A030012B01D1022316E07B68012283F8B5
:1041A000A0207B68022283F8A1200A4A094B9B6960
:1041B00043F4803393617B68012283F8A1207B68FC
:1041C000002283F8A020002318460C37BD465DF876
:1041D000047B70470068014080B489B000AFF8608C
:1041E000B9607A60BB685A68FB681B68DB681B0CA7
:1041F000C3F30B0313441B04FB61FB681B681A46E3
:104200007B68DB01134484331A46FB681B6819463C
:104210007B68DB010B4484335B6803F470435360B9
:10422000FB681B681A467B68DB011344843319461C
:10423000BB681A68FB681B68DB681B0CC3F30B03C5
:1042400013445A1CFB6913434B60BB68DA68FB6874
:104250001B68DB68C3F30A0313441B04FB61FB68A0
:104260001B681A467B68DB01134484331A46FB68DB
:104270001B6819467B68DB010B4484339B6803F49D
:1042800070439360FB681B681A467B68DB0113442C
:1042900084331946BB689A68FB681B68DB68C3F304
:1042A0000A0313445A1CFB6913438B60FB681B68A9
:1042B0001A467B68DB01134484331A46FB681B688B
:1042C00019467B68DB010B4484331B6923F0070329
:1042D0001361FB681B681A467B68DB011344843357
:1042E0001A46BB681B691361BB6893F831301B0227
:1042F000FB61BB6893F832301B04BB61BB689B69F0
:104300001B067B61FB681B681A467B68DB01134454
:1043100084339B69FB681B681A467B68DB01134486
:1043200084331A4600239361FB681B681A467B6836
:10433000DB01134484331946BB6893F830301A46C6
:10434000FB691A43BB691A437B6913438B61FB68A2
:104350001B681A467B68DB01134484331A46FB68EA
:104360001B6819467B68DB010B4484335B6923F0CF
:10437000FF035361FB681B681A467B68DB0113442B
:1043800084331A46BB685B695361FB681B681A4635
:104390007B68DB01134484331A46FB681B681946AB
:1043A0007B68DB010B448433DB6923F4E06323F097
:1043B0000703D361FB681B681A467B68DB01134463
:1043C00084331946BB68DA69BB681B6A1343CB6147
:1043D000FB681B681A467B68DB01134484339B6AC5
:1043E000FB681B681A467B68DB01134484331A465A
:1043F00000239362FB681B681A467B68DB01134449
:1044000084331A46BB685B6A9362BB681B69002BE6
:1044100002D10423FB611BE0BB681B69012B02D1A5
:104420000323FB6114E0BB681B69042B0BD0BB6842
:104430001B69022B07D0BB681B69032B03D0BB6829
:104440001B69072B02D10223FB6101E00123FB6101
:10445000FB681B681A467B68DB01134484331A46E9
:10446000FB681B6819467B68DB010B448433DB6AFD
:1044700003F0E023D362FB681B681A467B68DB010C
:10448000134484331846BB689B6AFA6902FB03F342
:104490001A04BB685968BB681B68CB1AF96901FB31
:1044A00003F303331343C362FB681B681A467B683C
:1044B000DB01134484331A46FB681B6819467B688A
:1044C000DB010B4484331B6B23F4FF6323F00703EE
:1044D0001363FB681B681A467B68DB011344843353
:1044E0001A46BB68DB6A1363FB681B681A467B6865
:1044F000DB01134484331A46FB681B6819467B684A
:10450000DB010B4484331B6843F00103136000BFDD
:104510002437BD465DF8047B7047000080B582B04B
:1045200000AF00237B6000233B60204A1F4B1B6CC5
:1045300043F0805313641D4B1B6C03F080533B60AE
:104540003B681B4B01221A60FEF754F9786009E0C2
:10455000FEF750F902467B68D31AB3F57A7F01D98A
:1045600003231FE0134B5B6803F48033B3F5803FF4
:10457000EED1114B01221A60FEF73CF9786009E098
:10458000FEF738F902467B68D31AB3F57A7F01D972
:10459000032307E0074B5B6803F40033B3F5003FE8
:1045A000EED1002318460837BD4680BD00380240D2
:1045B00040000E420070004044000E4280B586B0BC
:1045C00000AF78607B68002B01D101232DE27B686E
:1045D0001B6803F00103002B75D0A34B9B6803F00D
:1045E0000C03042B0CD0A04B9B6803F00C03082B8E
:1045F00012D19D4B5B6803F48003B3F5800F0BD1A0
:10460000994B1B6803F40033002B5BD07B685B681D
:10461000002B57D1012308E27B685B68B3F5803F2C
:1046200006D1914A904B1B6843F4803313601DE020
:104630007B685B68B3F5A02F0CD18B4A8A4B1B6853
:1046400043F480231360884A874B1B6843F480330C
:1046500013600BE0844A844B1B6823F4803313609F
:10466000814A814B1B6823F4802313607B685B685D
:10467000002B13D0FEF7BEF8386108E0FEF7BAF859
:1046800002463B69D31A642B01D90323CDE1764B53
:104690001B6803F40033002BF0D014E0FEF7AAF8F7
:1046A000386108E0FEF7A6F802463B69D31A642B8E
:1046B00001D90323B9E16C4B1B6803F40033002BD1
:1046C000F0D100E000BF7B681B6803F00203002B01
:1046D00063D0654B9B6803F00C03002B0BD0624B3F
:1046E0009B6803F00C03082B1CD15F4B5B6803F441
:1046F0008003002B16D15C4B1B6803F00203002BD8
:1047000005D07B68DB68012B01D001238DE1564980
:10471000554B1B6823F0F8027B681B69DB001343D1
:104720000B603AE07B68DB68002B20D04F4B012206
:104730001A60FEF75FF8386108E0FEF75BF80246A2
:104740003B69D31A022B01D903236EE1464B1B6848
:1047500003F00203002BF0D04349434B1B6823F0C6
:10476000F8027B681B69DB0013430B6015E03F4BCD
:1047700000221A60FEF73EF8386108E0FEF73AF8CA
:1047800002463B69D31A022B01D903234DE1364B74
:104790001B6803F00203002BF0D17B681B6803F059
:1047A0000803002B30D07B685B69002B16D0304BA0
:1047B00001221A60FEF71EF8386108E0FEF71AF8C9
:1047C00002463B69D31A022B01D903232DE1264B64
:1047D0005B6F03F00203002BF0D015E0244B0022A6
:1047E0001A60FEF707F8386108E0FEF703F80246A2
:1047F0003B69D31A022B01D9032316E11A4B5B6FD5
:1048000003F00203002BF0D17B681B6803F0040364
:10481000002B00F0A0800023FB75134B1B6C03F0F2
:104820008053002B0FD10023FB600F4A0E4B1B6CF3
:1048300043F0805313640C4B1B6C03F08053FB60FC
:10484000FB680123FB750B4B1B6803F48073002B83
:1048500021D1084A074B1B6843F480731360FDF7AE
:10486000C9FF386111E000BF003802400000474234
:10487000800E474200700040FDF7BCFF02463B69D6
:10488000D31A022B01D90323CFE06A4B1B6803F430
:104890008073002BF0D07B689B68012B06D1664AA1
:1048A000654B1B6F43F0010313671CE07B689B683B
:1048B000052B0CD1604A604B1B6F43F00403136758
:1048C0005D4A5D4B1B6F43F0010313670BE05A4ACF
:1048D000594B1B6F23F001031367574A564B1B6F4D
:1048E00023F0040313677B689B68002B15D0FDF74A
:1048F00081FF38610AE0FDF77DFF02463B69D31A6C
:1049000041F28832934201D903238EE04A4B1B6F58
:1049100003F00203002BEED014E0FDF76BFF3861CB
:104920000AE0FDF767FF02463B69D31A41F288327D
:10493000934201D9032378E03F4B1B6F03F002033E
:10494000002BEED1FB7D012B05D13B4A3A4B1B6C72
:1049500023F0805313647B689B69002B64D0364B33
:104960009B6803F00C03082B5CD07B689B69022BCF
:1049700041D1324B00221A60FDF73CFF386108E05C
:10498000FDF738FF02463B69D31A022B01D90323F6
:104990004BE0294B1B6803F00073002BF0D1264934
:1049A0007B68DA697B681B6A1A437B685B6A9B01D8
:1049B0001A437B689B6A5B08013B1B041A437B68B4
:1049C000DB6A1B0613434B601C4B01221A60FDF788
:1049D00011FF386108E0FDF70DFF02463B69D31A6D
:1049E000022B01D9032320E0134B1B6803F0007353
:1049F000002BF0D018E0114B00221A60FDF7FAFEF0
:104A0000386108E0FDF7F6FE02463B69D31A022B37
:104A100001D9032309E0084B1B6803F00073002B46
:104A2000F0D101E0012300E0002318461837BD460D
:104A300080BD00BF00700040003802406000474267
:104A400080B584B000AF786039607B68002B01D1FD
:104A50000123CAE0674B1B6803F00F023B689A42D0
:104A60000CD2644B3A68D2B21A70624B1B6803F0E6
:104A70000F023B689A4201D00123B6E07B681B68B5
:104A800003F00203002B20D07B681B6803F00403B3
:104A9000002B05D0584A584B9B6843F4E053936071
:104AA0007B681B6803F00803002B05D0524A524B69
:104AB0009B6843F4604393604F494F4B9B6823F0DE
:104AC000F0027B689B6813438B607B681B6803F074
:104AD0000103002B44D07B685B68012B07D1464B58
:104AE0001B6803F40033002B19D101237DE07B68A0
:104AF0005B68022B03D07B685B68032B07D13E4BBE
:104B00001B6803F00073002B09D101236DE03A4BC1
:104B10001B6803F00203002B01D1012365E0364935
:104B2000354B9B6823F003027B685B6813438B6003
:104B3000FDF760FEF8600AE0FDF75CFE0246FB68E8
:104B4000D31A41F28832934201D903234DE02A4B14
:104B50009B6803F00C027B685B689B009A42EBD178
:104B6000244B1B6803F00F023B689A420CD9214B7F
:104B70003A68D2B21A701F4B1B6803F00F023B68F1
:104B80009A4201D0012330E07B681B6803F00403E4
:104B9000002B08D01849184B9B6823F4E0527B681F
:104BA000DB6813438B607B681B6803F00803002BF2
:104BB00009D01149104B9B6823F460427B681B6944
:104BC000DB0013438B6000F01DF801460A4B9B6825
:104BD0001B0903F00F03094AD35C21FA03F3084AC7
:104BE0001360002003F06CFE002318461037BD460A
:104BF00080BD00BF003C024000380240A010030806
:104C0000480000202DE9F04F8FB000AF0023FB6279
:104C100000237B630023BB6200233B63624B9B68E2
:104C200003F00C03042B07D0082B08D0002B40F016
:104C3000B2805E4B3B63B1E05D4B3B63AEE05A4BF1
:104C40005B6803F03F03FB62574B5B6803F4800330
:104C5000002B4ED0544B5B689B094FF0000440F290
:104C6000FF114FF0000201EA030102EA04020B46C1
:104C7000144660017862786A40EAD36078625B012A
:104C80003B62D7E908345B1A64EB02044FEA8419EB
:104C900049EA93694FEA8318B8EB030869EB040902
:104CA0004FEAC903FB61FB6943EA5873FB614FEAB2
:104CB000C803BB61D7E9068918EB010849EB020973
:104CC0004FEA49237B617B6943EAD8537B614FEA12
:104CD00048233B61D7E9048940464946FB6A4FF0C7
:104CE00000041A462346FBF7C5FE03460C467B63C9
:104CF00043E02D4B5B689B094FF0000440F2FF112D
:104D00004FF0000201EA030102EA04020B461446D6
:104D10006001F860F86840EAD360F8605B01BB604E
:104D2000D7E902345B1A64EB0204A60146EA9366F3
:104D30009D01ED1A66EB0406F3007B607B6843EA95
:104D400055737B60EB003B6097E860006D1846EBA5
:104D500002064FEA862B4BEA955B4FEA852A5546B9
:104D60005E4628463146FB6A4FF000041A46234649
:104D7000FBF780FE03460C467B630B4B5B681B0C0A
:104D800003F0030301335B00BB627A6BBB6AB2FBC7
:104D9000F3F33B6302E0054B3B6300BF3B6B1846FC
:104DA0003C37BD46BDE8F08F003802400024F400D7
:104DB00000127A0080B400AF034B1B681846BD4652
:104DC0005DF8047B704700BF4800002080B500AF4D
:104DD000FFF7F0FF0146054B9B689B0A03F00703B2
:104DE000034AD35C21FA03F3184680BD0038024021
:104DF000B010030880B500AFFFF7DCFF0146054B9C
:104E00009B685B0B03F00703034AD35C21FA03F3AF
:104E1000184680BD00380240B010030880B483B04B
:104E200000AF786039607B680F221A60124B9B6874
:104E300003F003027B685A600F4B9B6803F0F0029B
:104E40007B689A600C4B9B6803F4E0527B68DA60E5
:104E5000094B9B68DB0803F4E0527B681A61074B3F
:104E60001B6803F00F023B681A6000BF0C37BD4699
:104E70005DF8047B704700BF00380240003C0240F0
:104E800080B586B000AF786000237B6100233B6172
:104E90007B681B6803F00103002B05D17B681B684E
:104EA00003F00203002B61D0A34B00221A60FDF730
:104EB000A1FC786108E0FDF79DFC02467B69D31AEE
:104EC000022B01D9032377E19C4B1B6803F000639D
:104ED000002BF0D17B681B6803F00103002B09D085
:104EE00096497B685B689A017B689B681B07134344
:104EF000C1F884307B681B6803F00203002B1FD0CD
:104F00008E4BD3F884301B0F03F007033B618B49B2
:104F10007B685B689A017B68DB681B061A433B6908
:104F20001B071343C1F884308449844BD3F88C3079
:104F300023F01F027B68DB69013B1343C1F88C300F
:104F40007D4B01221A60FDF755FC786108E0FDF702
:104F500051FC02467B69D31A022B01D903232BE1B2
:104F6000764B1B6803F00063002BF0D07B681B6856
:104F700003F00403002B05D17B681B6803F00803D2
:104F8000002B79D06E4B00221A60FDF733FC78615C
:104F900008E0FDF72FFC02467B69D31A022B01D9EA
:104FA000032309E1654B1B6803F00053B3F1005F75
:104FB000EFD07B681B6803F00403002B20D05F4B0D
:104FC000D3F888301B0F03F007033B615B497B6814
:104FD0001B699A017B685B691B061A433B691B07C7
:104FE0001343C1F888305549544BD3F88C3023F41F
:104FF000F8527B681B6A013B1B021343C1F88C30DB
:105000007B681B6803F00803002B1ED04B4BD3F8C2
:1050100088301B0E03F00F033B6148497B681B6916
:105020009A013B691B061A437B689B691B07134364
:10503000C1F888304149414BD3F88C3023F44032D9
:105040007B685B6A1343C1F88C303D4B01221A60C8
:10505000FDF7D0FB786108E0FDF7CCFB02467B69E9
:10506000D31A022B01D90323A6E0344B1B6803F0AB
:105070000053B3F1005FEFD17B681B6803F020039E
:10508000002B00F08D800023FB602C4A2B4B1B6C07
:1050900043F080531364294B1B6C03F08053FB6077
:1050A000FB68284A274B1B6843F480731360FDF7A5
:1050B000A1FB786108E0FDF79DFB02467B69D31AEE
:1050C000022B01D9032377E01E4B1B6803F4807386
:1050D000002BF0D0194B1B6F03F440733B613B690D
:1050E000002B39D07B689B6A03F440723B699A427B
:1050F00032D0124B1B6F23F440733B61124B0122E1
:105100001A60114B00221A600C4A3B6913670B4B63
:105110001B6F03F00103012B1ED1FDF76BFB7861C0
:1051200014E0FDF767FB02467B69D31A41F288322F
:1051300093420BD903233FE0680047420038024006
:105140007000474200700040400E47421C4B1B6FEE
:1051500003F00203002BE4D07B689B6A03F44073E6
:10516000B3F5407F0DD11649154B9B6823F4F81217
:105170007B689B6A23F0704323F4407313438B6076
:1051800005E00F4A0E4B9B6823F4F81393600C491B
:105190000B4B1A6F7B689B6AC3F30B0313430B67BC
:1051A0007B681B6803F01003002B04D0054A7B6862
:1051B00093F82C301360002318461837BD4680BD85
:1051C00000380240E011474280B582B000AF7860FD
:1051D00039607B68002B01D1012325E07B6893F8BF
:1051E0002C30DBB2002B06D17B68002283F82D2007
:1051F000786801F03FFF7B68022283F82C207B68EF
:105200001A687B6804331946104601F08DFC7B68F0
:1052100018687B685B681A46396801F0F8FC7B689F
:10522000012283F82C20002318460837BD4680BD94
:1052300080B584B000AFF860B9607A60FB6893F81D
:105240002C30DBB2022B01D1022318E0FB680222D2
:1052500083F82C20FB681B687A68B968184601F04F
:1052600055FDBB681B68022B04D1FB68052283F83F
:105270002C2003E0FB68012283F82C200023184631
:105280001037BD4680BD80B582B000AF7860396010
:105290007B6893F82C30DBB2022B01D102230EE0A5
:1052A0007B68022283F82C207B681B6839681846CB
:1052B00001F068FD7B68012283F82C20002318464A
:1052C0000837BD4680BD80B582B000AF78607B688E
:1052D000002B01D1012355E07B6800229A627B6894
:1052E00093F85130DBB2002B06D17B68002283F8A3
:1052F0005020786803F056FA7B68022283F8512028
:105300007B681B687A681268126822F040021A6093
:105310007B681B687A6851687A68926811437A687A
:10532000D26811437A68126911437A68526911434D
:105330007A68926902F4007211437A68D269114363
:105340007A68126A11437A68926A0A431A607B6823
:105350001B687A689269120C02F004017A68526A3A
:105360000A435A607B681B687A681268D26922F423
:105370000062DA617B6800225A657B68012283F84B
:105380005120002318460837BD4680BD80B582B045
:1053900000AF78607B68002B01D101231AE07B68A5
:1053A000022283F851207B681B687A6812681268B1
:1053B00022F040021A60786803F03CFA7B68002211
:1053C0005A657B68002283F851207B68002283F8AD
:1053D0005020002318460837BD4680BD80B588B0F0
:1053E00000AFF860B9603B601346FB800023FB7799
:1053F000FB6893F85030012B01D102231CE1FB68BC
:10540000012283F85020FDF7F5F9B861FB88FB8293
:10541000FB6893F85130DBB2012B02D00223FB77FB
:1054200001E1BB68002B02D0FB88002B02D10123D5
:10543000FB77F8E0FB68032283F85120FB68002229
:105440005A65FB68BA681A63FB68FA889A86FB6833
:10545000FA88DA86FB6800229A63FB6800229A8742
:10546000FB680022DA87FB6800225A64FB6800228E
:105470001A64FB689B68B3F5004F07D1FB681B6893
:10548000FA681268126842F480421A60FB681B686E
:105490001B6803F04003402B07D0FB681B68FA68C9
:1054A0001268126842F040021A60FB68DB68B3F5CC
:1054B000006F4BD1FB685B68002B02D0FB8A012B8D
:1054C0003ED1FB681B68FA68126B1288DA60FB68D1
:1054D0001B6B9A1CFB681A63FB68DB8E9BB2013B5B
:1054E0009AB2FB68DA862BE0FB681B689B6803F0C6
:1054F0000203022B12D1FB681B68FA68126B128838
:10550000DA60FB681B6B9A1CFB681A63FB68DB8E16
:105510009BB2013B9AB2FB68DA8611E0FDF76AF9AB
:105520000246BB69D21A3B689A4203D33B68B3F187
:10553000FF3F02D13B68002B02D10323FB7772E0CF
:10554000FB68DB8E9BB2002BCED14CE0FB685B6826
:10555000002B02D0FB8A012B40D1FB681B680C3367
:10556000FA68126B12781A70FB681B6B5A1CFB6886
:105570001A63FB68DB8E9BB2013B9AB2FB68DA864A
:105580002CE0FB681B689B6803F00203022B13D11D
:10559000FB681B680C33FA68126B12781A70FB6890
:1055A0001B6B5A1CFB681A63FB68DB8E9BB2013BCA
:1055B0009AB2FB68DA8611E0FDF71CF90246BB6976
:1055C000D21A3B689A4203D33B68B3F1FF3F02D142
:1055D0003B68002B02D10323FB7724E0FB68DB8EC2
:1055E0009BB2002BCDD1BA693968F86800F07BFB1B
:1055F0000346002B02D0FB6820225A65FB689B689B
:10560000002B0AD100233B61FB681B68DB683B6110
:10561000FB681B689B683B613B69FB685B6D002B0B
:1056200001D00123FB77FB68012283F85120FB683E
:10563000002283F85020FB7F18462037BD4680BDEE
:1056400080B588B002AFF860B9603B601346FB805C
:105650000023FB75FB685B68B3F5827F12D1FB68A2
:105660009B68002B0ED1FB68042283F85120FA8836
:105670003B6800931346BA68B968F86800F0E6F82A
:105680000346DFE0FB6893F85030012B01D1022381
:10569000D8E0FB68012283F85020FDF7ABF83861B1
:1056A000FB6893F85130DBB2012B02D00223FB756B
:1056B000BFE0BB68002B02D0FB88002B02D1012386
:1056C000FB75B6E0FB68042283F85120FB680022DA
:1056D0005A65FB68BA689A63FB68FA889A87FB6820
:1056E000FA88DA87FB6800221A63FB6800229A8630
:1056F000FB680022DA86FB6800221A64FB6800223D
:105700005A64FB689B68B3F5004F07D1FB681B68C0
:10571000FA681268126822F480421A60FB681B68FB
:105720001B6803F04003402B07D0FB681B68FA6836
:105730001268126842F040021A60FB68DB68002BB6
:1057400061D12DE0FB681B689B6803F00103012B0E
:1057500014D1FB689B6BFA6812680C321278D2B2D3
:105760001A70FB689B6B5A1CFB689A63FB68DB8FA3
:105770009BB2013B9AB2FB68DA8711E0FDF73AF879
:1057800002463B69D21A3B689A4203D33B68B3F1A5
:10579000FF3F02D13B68002B02D10323FB7548E099
:1057A000FB68DB8F9BB2002BCCD131E0FB681B6820
:1057B0009B6803F00103012B13D1FB689B6BFA6814
:1057C0001268D26892B21A80FB689B6B9A1CFB68C5
:1057D0009A63FB68DB8F9BB2013B9AB2FB68DA8766
:1057E00011E0FDF707F802463B69D21A3B689A427E
:1057F00003D33B68B3F1FF3F02D13B68002B02D1DA
:105800000323FB7515E0FB68DB8F9BB2002BCDD12A
:105810003A693968F86800F031FA0346002B02D083
:10582000FB6820225A65FB685B6D002B01D00123C9
:10583000FB75FB68012283F85120FB68002283F886
:105840005020FB7D18461837BD4680BD80B58CB012
:1058500000AFF860B9607A607B800123FB620023AF
:1058600087F82B30FB6893F85030012B01D10223CD
:1058700088E1FB68012283F85020FCF7BBFF7862C7
:10588000FB6893F8513087F82330FB685B68FB6155
:105890007B887B8397F82330012B0FD0FB69B3F50E
:1058A000827F07D1FB689B68002B03D197F82330D8
:1058B000042B03D0022387F82B3059E1BB68002B5F
:1058C00005D07B68002B02D07B88002B03D10123FD
:1058D00087F82B304CE1FB6893F85130DBB2042B96
:1058E00003D0FB68052283F85120FB6800225A652B
:1058F000FB687A689A63FB687A88DA87FB687A883B
:105900009A87FB68BA681A63FB687A88DA86FB684C
:105910007A889A86FB6800221A64FB6800225A641F
:10592000FB681B681B6803F04003402B07D0FB6833
:105930001B68FA681268126842F040021A60FB683D
:10594000DB68B3F5006F78D1FB685B68002B02D091
:105950007B8B012B66D1FB681B68FA68126B12887F
:10596000DA60FB681B6B9A1CFB681A63FB68DB8EB2
:105970009BB2013B9AB2FB68DA8653E0FB681B6876
:105980009B6803F00203022B1BD1FB68DB8E9BB2EA
:10599000002B16D0FB6A012B13D1FB681B68FA6839
:1059A000126B1288DA60FB681B6B9A1CFB681A6327
:1059B000FB68DB8E9BB2013B9AB2FB68DA86002360
:1059C000FB62FB681B689B6803F00103012B19D184
:1059D000FB68DB8F9BB2002B14D0FB689B6BFA68D3
:1059E0001268D26892B21A80FB689B6B9A1CFB68A3
:1059F0009A63FB68DB8F9BB2013B9AB2FB68DA8744
:105A00000123FB62FCF7F6FE02467B6AD21ABB6BEF
:105A10009A4207D3BB6BB3F1FF3F03D0032387F850
:105A20002B30A5E0FB68DB8E9BB2002BA6D1FB6878
:105A3000DB8F9BB2002BA1D17CE0FB685B68002B65
:105A400002D07B8B012B6BD1FB681B680C33FA688F
:105A5000126B12781A70FB681B6B5A1CFB681A6376
:105A6000FB68DB8E9BB2013B9AB2FB68DA8657E09B
:105A7000FB681B689B6803F00203022B1CD1FB68C8
:105A8000DB8E9BB2002B17D0FB6A012B14D1FB6875
:105A90001B680C33FA68126B12781A70FB681B6B68
:105AA0005A1CFB681A63FB68DB8E9BB2013B9AB2FF
:105AB000FB68DA860023FB62FB681B689B6803F0C7
:105AC0000103012B19D1FB68DB8F9BB2002B14D093
:105AD000FB689B6BFA681268D268D2B21A70FB68D6
